:100000000C946B000C9493000C9493000C9493004C
:100010000C9493000C9493000C9493000C94AB00FC
:100020000C9493000C9493000C9493000C94930004
:100030000C9493000C9493000C9493000C949300F4
:100040000C94E4130C9493000C9493000C94930080
:100050000C9493000C9493000C9493000C949300D4
:100060000C9493000C9493007C3C3E5E2B3D3F2F00
:100070005B5D3B2C2A225C0000000000240027006E
:100080002A0000000000250028002B0000000000CE
:1000900023002600290004040404040404040202CA
:1000A00002020202030303030303010204081020F7
:1000B0004080010204081020010204081020000002
:1000C0000007000201000003040600000000000019
:1000D000000020018B0311241FBECFEFD8E0DEBF4C
:1000E000CDBF11E0A0E0B1E0E0E4FCE202C0059089
:1000F0000D92A634B107D9F717E0A6E4B1E001C02C
:100100001D92A53DB107E1F710E0C6EDD0E004C0B7
:100110002297FE010E941A16C23DD107C9F70E941C
:10012000C0150C941E160C940000FB01DC0104C0E9
:100130008D910190801921F441505040C8F7881BDF
:10014000990B0895FB01DC0102C001900D92415012
:100150005040D8F708951F920F920FB60F921124B6
:100160002F933F938F939F93AF93BF93EF93FF93FF
:1001700080917A00806480937A0080917A0086FD75
:10018000FCCF8091A4019091A501A091A601B0910E
:10019000A7010196A11DB11D8093A4019093A50113
:1001A000A093A601B093A7012091B4053091B505A5
:1001B0002F5F3F4F3093B5052093B40582E0203088
:1001C000380761F48091B605882341F41092B50593
:1001D0001092B40581E08093B6050DC020503240E6
:1001E00051F48091B605813031F41092B50510922A
:1001F000B4051092B6058091B605882349F4809124
:100200007900E091B405F091B505E055FE4F0AC0C4
:10021000813049F480917900E091B405F091B50501
:10022000E055FC4F8083FF91EF91BF91AF919F917B
:100230008F913F912F910F900FBE0F901F901895A7
:1002400089E18093470110924A0110925D0110925A
:100250006401109266011092820110928401109242
:1002600081011092800181E491E090937F0180935D
:100270007E0108950F931F931092A8011092A90177
:100280001092AA011092AB0102E811E0C80160E0EF
:1002900071E043E50E945B0E04501040C8016DE020
:1002A00071E00E94A80E20919C0130919D01409127
:1002B0009E0150919F012093B005BB27A52F942F3D
:1002C000832F8093B105CA01AA27BB278093B2056B
:1002D000852F9927AA27BB278093B305C801622FD2
:1002E0000E94B40EC8016091B1050E94B40EC8010D
:1002F0006091B2050E94B40EC8016091B3050E94DE
:10030000B40EC80162E171E00E94A80EC80167E165
:1003100071E00E94A80E20912101309122014091AC
:100320002301509124012093B005BB27A52F942FC2
:10033000832F8093B105CA01AA27BB278093B205FA
:10034000852F9927AA27BB278093B305C801622F61
:100350000E94B40EC8016091B1050E94B40EC8019C
:100360006091B2050E94B40EC8016091B3050E946D
:10037000B40E60912501809126016093B0058093B1
:10038000B105C8010E94B40EC8016091B1050E9478
:10039000B40E60912701809128016093B00580938D
:1003A000B105C8010E94B40EC8016091B1050E9458
:1003B000B40E2091290130912A0140912B015091D6
:1003C0002C012093B005BB27A52F942F832F80935A
:1003D000B105CA01AA27BB278093B205852F9927AB
:1003E000AA27BB278093B305C801622F0E94B40ED1
:1003F000C8016091B1050E94B40EC8016091B205B8
:100400000E94B40EC8016091B3050E94B40E209101
:100410002D0130912E0140912F01509130012093F8
:10042000B005BB27A52F942F832F8093B105CA0158
:10043000AA27BB278093B205852F9927AA27BB2718
:100440008093B305C801622F0E94B40EC801609169
:10045000B1050E94B40EC8016091B2050E94B40EAD
:10046000C8016091B3050E94B40E60913101809182
:1004700032016093B0058093B105C8010E94B40EAB
:10048000C8016091B1050E94B40E60913301809162
:1004900034016093B0058093B105C8010E94B40E89
:1004A000C8016091B1050E94B40EC8016CE171E011
:1004B0000E94A80E2091A0013091A1014091A201BB
:1004C0005091A3012093B005BB27A52F942F832F14
:1004D0008093B105CA01AA27BB278093B205852F57
:1004E0009927AA27BB278093B305C801622F0E94D2
:1004F000B40EC8016091B1050E94B40EC8016091AC
:10050000B2050E94B40EC8016091B3050E94B40EFA
:100510001F910F9108958DE061E00E94191583E00D
:1005200060E00E9419151092A4011092A50110928A
:10053000A6011092A7011092A8011092A901109291
:10054000AA011092AB0181E090E09093AD018093FD
:10055000AC011092AF011092AE010E943A01E0E7A7
:10056000F0E080818260808308950E948B028091F8
:10057000A4019091A501A091A601B091A70193704B
:10058000A070B07080509240A040B04011F58091B2
:10059000AC019091AD010197E1F48EE791E060EB41
:1005A00071E040E052E00E94CD0E8091A801909150
:1005B000A901A091AA01B091AB0180509E4FAF4F0D
:1005C000BF4F8093A8019093A901A093AA01B09373
:1005D000AB018091A4019091A501A091A601B091D9
:1005E000A7019370A070B0700097A105B10511F537
:1005F0008091AC019091AD010197E1F48EE791E01B
:1006000060EB73E040E052E00E94CD0E8091A801C3
:100610009091A901A091AA01B091AB0180509E4F89
:10062000AF4FBF4F8093A8019093A901A093AA0157
:10063000B093AB010895CF93DF9382E08093B10034
:100640008093B0008AE58093B30085E680937C00B8
:1006500080917A008B7F80937A0080917A0082600B
:1006600080937A0080917A00816080937A008AE09A
:1006700061E00E94DA148DE061E00E94DA1483E008
:1006800061E00E94DA1485E062E00E94DA1486E0FC
:1006900062E00E94DA1486E491E064E042E00E94A5
:1006A000800E8823B9F0C0E0D0E08DE00E946D1587
:1006B00060E0892B09F461E08DE00E94191564E681
:1006C00070E080E090E00E9446142196C430D1058D
:1006D00061F711C08DE00E946D1560E0892B09F46F
:1006E00061E08DE00E94191564EF71E080E090E018
:1006F0000E944614EFCFDF91CF9108958091C10001
:1007000085FDFCCF8091C00085FFF8CF6093C600C7
:1007100081E090E008951092BA051092B90589E33E
:1007200091E09093B8058093B70508950F931F93B8
:10073000CF93DF938B010E943814EB0109C00E9414
:1007400038146C1B7D0B6017710710F080E007C038
:100750008BEB95E00E94D90E8F3F89F781E0DF9106
:10076000CF911F910F910895FC01808161E00E945B
:1007700019158BEB95E06FEF0E94300F08950F93E2
:100780001F93CF93DF93EC018A018BEB95E00E94DE
:10079000300F8BEB95E0B80140E052E00E94790FFA
:1007A0008BEB95E06FEF0E94300F8BEB95E06FEFD6
:1007B0000E94300F8BEB95E00E94D90E8B838F71D6
:1007C000853011F481E006C083E18983CE010E9467
:1007D000B40380E0DF91CF911F910F910895CF92E4
:1007E000DF92EF92FF920F931F93CF93DF93EC0171
:1007F0007B016A010E9438148B0109C00E943814E1
:10080000601B710B6D52714010F081E115C08BEBD4
:1008100095E00E94D90E8B838F3F81F38E3F11F0BC
:100820008FE00AC08BEB95E0B701A6010E940D0F87
:100830008B83882339F08CE18983CE010E94B40335
:1008400080E00CC08BEB95E00E94D90E8BEB95E01D
:100850000E94D90ECE010E94B40381E0DF91CF91B6
:100860001F910F91FF90EF90DF90CF9008950F931D
:100870001F938C018BEB95E0F80162810E94D80EEA
:10088000F801808160E00E9419151F910F91089571
:10089000AF92BF92DF92EF92FF920F931F93DF937D
:1008A000CF9300D000D0CDB7DEB77C01D62E298300
:1008B0003A834B835C830E943704C70168E572E08A
:1008C0000E9496036D2D60648BEB95E00E94300FC3
:1008D0008E010F5F1F4F8DEFA82E8FEFB82EAC0E3D
:1008E000BD1E8BEB95E0F80163810E94300F015033
:1008F00010400A151B05A9F7DD2011F067E801C0BB
:1009000065E98BEB95E00E94300FFCE0DF1621F4E7
:100910008BEB95E00E94D90E10E08BEB95E00E94E6
:10092000D90EF701838387FF02C01150B1F70F90F2
:100930000F900F900F90CF91DF911F910F91FF902B
:10094000EF90DF90BF90AF900895CF92DF92EF923B
:10095000FF920F931F93CF93DF93EC017A018B01EA
:1009600069018C81833039F029E0EE0CFF1C001FF7
:10097000111F2A95D1F7CE0168E1A80197010E94C5
:100980004804882319F086E089830CC0CE016EEFFD
:10099000A6010E94BF03882329F0CE010E94B40360
:1009A00081E004C0CE010E94B40380E0DF91CF91CA
:1009B0001F910F91FF90EF90DF90CF900895CF920D
:1009C000DF92EF92FF920F931F93CF93DF93EC018F
:1009D0007A018B0169018C81833039F0B9E0EE0C2A
:1009E000FF1C001F111FBA95D1F7CE0161E1A801CC
:1009F00097010E944804882339F084E08983CE015E
:100A00000E94B40380E006C0CE01B60140E052E08F
:100A10000E94EF03DF91CF911F910F91FF90EF9014
:100A2000DF90CF900895BF92CF92DF92EF92FF9226
:100A30000F931F93CF93DF93EC01B42E1C82198286
:100A400068830E9438146B01888161E00E94DA1487
:100A5000888161E00E9419158BEB95E00E94D10E10
:100A600080E48A838BEB95E060E40E94D80E10E06E
:100A70008BEB95E06FEF0E94300F1F5F1A30C1F7CC
:100A800009C00E9438146C197D09615D774010F02F
:100A900081E06CC0CE0160E020E030E040E050E05A
:100AA0000E944804813069F7CE0168E02AEA31E00B
:100AB00040E050E00E944804853011F481E017C006
:100AC0008BEB95E00E94D90E8B838BEB95E00E9417
:100AD000D90E8B838BEB95E00E94D90E8B838BEB29
:100AE00095E00E94D90E8B838A3A31F482E08C83A0
:100AF0008C81823051F40DC00E9438146C197D092C
:100B0000615D774088F282E031C0EE24FF248701E6
:100B10000FC0E12CF12C012D80E4182F09C00E9498
:100B200038146C197D09615D774010F08AE01EC0B1
:100B3000CE0167E320E030E040E050E00E9448044E
:100B4000CE0169E2A80197010E944804882339F781
:100B50008C81823031F5CE016AE320E030E040E064
:100B600050E00E944804882339F088E08983CE0150
:100B70000E94B40380E01AC08BEB95E00E94D90E6E
:100B8000807C803C11F483E08C838BEB95E00E94A9
:100B9000D90E8BEB95E00E94D90E8BEB95E00E946D
:100BA000D90ECE010E94B403BA8281E0DF91CF91C9
:100BB0001F910F91FF90EF90DF90CF90BF9008951D
:100BC0000F931F93CF93DF93DC01EB018A0180E049
:100BD00090E020E2FE01E80FF91F208301968B30A0
:100BE0009105C1F757E040E024C0622F2E3219F082
:100BF00088E690E007C05A3051F15AE048E018C04A
:100C0000321729F1FC01019634913323C9F75417A7
:100C1000F0F02132E0F02F37D0F4822F81568A3164
:100C200010F4622F6052FE01E40FF11D60834F5FEC
:100C300011962C91222311F02F32B9F6F801B183CD
:100C4000A08390E08881803219F091E001C090E0AB
:100C5000892FDF91CF911F910F910895CF92DF924D
:100C6000EF92FF920F931F93DF93CF9300D000D0AA
:100C7000CDB7DEB77C01FC0186899789A08DB18D47
:100C800089839A83AB83BC8300E010E06E010894F3
:100C9000C11CD11C49815A816B817C81D70114967A
:100CA0008D919C91159796010E94FD11882379F1F1
:100CB000D7011496ED91FC9115978481080F111DB1
:100CC000B0E100301B0718F529813A814B815C8126
:100CD0008289803131F4285F3F4F40405040D0F24C
:100CE00005C0285F3F4F4F4F5F40A0F2C801A0E012
:100CF000B0E029E0880F991FAA1FBB1F2A95D1F7E2
:100D0000F701828B938BA48BB58B81E001C080E0CF
:100D10000F900F900F900F90CF91DF911F910F9137
:100D2000FF90EF90DF90CF900895CF93DF93EC0189
:100D3000FB018A818823D1F57D836C838289803190
:100D4000C9F582E08A831E8A1F8A188E198E8389CC
:100D50009489A0E0B0E035E0880F991FAA1FBB1F5F
:100D60003A95D1F78A8B9B8BAC8BBD8B0FC083E000
:100D70008A8385899689A789B08D8E8B9F8BA88F52
:100D8000B98FCE010E942E06882381F081E08983ED
:100D90001E821F82188619861A861B861C861D864F
:100DA0001E861F86188A198A1B8201C080E0DF9187
:100DB000CF9108958032D1F7DACF6F927F928F92E0
:100DC0009F92AF92BF92CF92DF92EF92FF920F93DA
:100DD0001F93CF93DF93EC017A018B012A812223A9
:100DE00009F480C08A899B89AC89BD8984179507DD
:100DF000A607B70708F476C085C0E114F104010521
:100E0000110551F41E821F82188619861A861B86C8
:100E10001C861D8681E067C02A853B854C855D85E3
:100E2000EC81FD81818590E0099621503040404061
:100E3000504039014A01082E04C096948794779453
:100E400067940A94D2F72F5F3F4F4F4F5F4F08943C
:100E5000E108F108010911095701680104C0D6949D
:100E6000C794B794A7948A95D2F70894E11CF11C13
:100E7000011D111DA614B704C804D90428F02115BA
:100E800031054105510549F48E899F89A88DB98D99
:100E90008E839F83A887B98716C0A618B708C8088D
:100EA000D90811C04E815F81688579858C819D81CB
:100EB00094010E94FD110894A108B108C108D1084D
:100EC000882331F40FC046E0842E912C8C0E9D1E99
:100ED000A114B104C104D10429F7EA86FB860C876A
:100EE0001D8798CF80E0DF91CF911F910F91FF90E8
:100EF000EF90DF90CF90BF90AF909F908F907F90BA
:100F00006F900895223009F078CFE7CFCF93DF9329
:100F1000EC01462F6E857F85888999890E94121081
:100F2000AC01009719F420E030E00AC08B81282F33
:100F300030E065E0220F331F6A95E1F7240F351F7B
:100F4000C901DF91CF9108950F931F93CF93DF9342
:100F50008C01FC0182818823F1F1818187FF38C0F7
:100F6000C80161E00E948607EC010097A1F1888129
:100F7000853E89F1F8018281823040F4828993892B
:100F8000A489B5898C8F9D8FAE8FBF8FF80186891C
:100F900097899B8F8A8F86899789A08DB18DCD0186
:100FA000AA27BB279D8B8C8BE091BE05F091BF05D6
:100FB000309751F0BE016A5E7F4FCE014896099589
:100FC000888D998D9B8B8A8BF80181818F778183A6
:100FD0000E94CA0F04C081E0F801808380E0DF91A5
:100FE000CF911F910F9108956F927F928F929F9250
:100FF000AF92BF92CF92DF92EF92FF920F931F9327
:10100000DF93CF9300D000D0CDB7DEB77C015A017B
:101010006B01DC0112968C911297813009F091C01E
:1010200011968C9181FF8DC0A0C00097A105B105DC
:1010300011F481E087C0F70162847384848495840D
:10104000C701B601A5010E94DD06882309F479C015
:10105000D70114968D919C911597A114B104C104E8
:10106000D10489F456964D915D916D917C9159977B
:101070000E946C12882309F464C0F701168A178A4B
:10108000108E118E44C0D70116964D915D916D91D1
:101090007C9119979E012F5F3F4F0E94FD1188237D
:1010A00009F44FC0D7011496ED91FC911597498131
:1010B0005A816B817C818289803149F4483FBFEF3E
:1010C0005B07B0E06B07B0E07B0748F020C0483F0B
:1010D0008FEF58078FEF68078FE07807C0F4CF01D4
:1010E0000E946C12882369F1D70116964D915D918B
:1010F0006D917C91199714968D919C9115970FEF96
:101100001FEF2FEF3FE00E948D118823D1F0F701F0
:10111000A28AB38AC48AD58A818180688183C70103
:101120000E94A407882369F0B601A5016A147B0414
:101130008C049D0410F4B401A301C7010E94DD06D4
:1011400001C080E00F900F900F900F90CF91DF9132
:101150001F910F91FF90EF90DF90CF90BF90AF90D5
:101160009F908F907F906F900895F7018289938967
:10117000A489B58984179507A607B70708F055CF46
:10118000E0CF1F93CF93DF93EC01142F262F30E095
:10119000F90185E0EE0FFF1F8A95E1F7EB53FA4F57
:1011A0008385817121F0842F827109F064C0809160
:1011B000C5079091C607A091C707B091C8078E8751
:1011C0009F87A88BB98B6B83F901B5E0EE0FFF1FEA
:1011D000BA95E1F7EB53FA4F2489358940E050E0A6
:1011E000A901332722272E8B3F8B488F598F828D61
:1011F000938DA0E0B0E0282B392B4A2B5B2B2E8B54
:101200003F8B488F598F838590E08871907000974D
:1012100051F4848D958DA68DB78D8A8B9B8BAC8B6D
:10122000BD8B81E008C0409731F5CE010E942E06AB
:10123000882309F184E08A83812F8F7089831E823D
:101240001F82188619861A861B861C861D8614FF27
:1012500018C0CE0140E050E060E070E00E94F4076A
:10126000882379F408C04A895B896C897D89CE011D
:101270000E94DD0602C01A8280E0DF91CF911F91AB
:10128000089515FDF0CF81E0F8CF0F931F938C01E7
:101290000E94A407F80112821F910F9108952F92C6
:1012A0003F924F925F926F927F928F929F92AF92F6
:1012B000BF92CF92DF92EF92FF920F931F93DF9333
:1012C000CF9300D0CDB7DEB74C011A01DC011296E6
:1012D0008C911297882309F4B4C011968C9180FFE9
:1012E000B0C0C7C015012E183F082B01F401369677
:1012F000FA83E98331019FC0D4011A962D913D9163
:101300004D915C911D979FEFA92E91E0B92EA222DD
:10131000B3221496ED91FC91159779018A0189E029
:1013200016950795F794E7948A95D1F794811296CC
:101330008C91823049F4458956896789708D4E0DAC
:101340005F1D601F711F35C0D92EDA94DE20A114F5
:10135000B10401F5DD20F1F42115310541055105F8
:1013600051F4F40186899789A08DB18D8683978386
:10137000A087B1870FC0D40116964D915D916D91F4
:101380007C911997CF0129813A810E94FD11882310
:1013900009F457C0F40146815781608571858481C5
:1013A00095810E94AA0FAB01BC014D0D511D611D1D
:1013B000711DA114B10499F4F0E06F16F2E07F06FC
:1013C00070F08091C5079091C607A091C707B091B2
:1013D000C807481759076A077B0709F067C0CB01A0
:1013E000BA0140E00E941210009759F140E052E02B
:1013F0004A195B0983014615570508F48A019C01C7
:101400002A0D3B1DC201B901A8010E94A200400E95
:10141000511E980140E050E0F40182859385A48537
:10142000B585820F931FA41FB51F82879387A4875A
:10143000B587601A710A6114710409F05DCFA101CA
:1014400002C04FEF5FEFCA010F900F90CF91DF9175
:101450001F910F91FF90EF90DF90CF90BF90AF90D2
:101460009F908F907F906F905F904F903F902F90C4
:101470000895D4015296AD90BD90CD90DC905597D3
:101480001A96ED90FD900D911C911D979A0140E0E8
:1014900050E0D601C5018E199F09A00BB10B28178A
:1014A00039074A075B0708F01DCF1FCF8091CA0795
:1014B0009091CB0792010E94DF04882311F200E093
:1014C00012E0A5CFDF93CF930F92CDB7DEB7BE0169
:1014D0006F5F7F4F41E050E00E944F09019719F084
:1014E0002FEF3FEF03C08981282F30E0C9010F9013
:1014F000CF91DF910895CF93DF93EC019C012A5F98
:101500003F4F8C819D8141E050E060E070E00E949F
:10151000D3128823A1F08E899F89A88DB98D009759
:10152000A105B10559F48E819F81A885B9858E8B5F
:101530009F8BA88FB98F89818068898381E0DF9133
:10154000CF9108952F923F924F925F926F927F9228
:101550009F92AF92BF92CF92DF92EF92FF920F9342
:101560001F93DF93CF9300D000D0CDB7DEB76C01CF
:10157000162F072F1A01DC0112968C9112978130D9
:1015800009F046C111968C9181FF42C15DC1F601FF
:10159000428953896489758982859385A485B58537
:1015A00084179507A607B70731F0C6010E94DD062C
:1015B000882309F42DC1812F902F9C01290131012D
:1015C000EDC0D6011496ED91FC911597DA01C90191
:1015D00019E0B695A795979587951A95D1F79480B8
:1015E0009A949822AFEFAA2EA1E0BA2EA222B3229B
:1015F000992009F052C0A114B10409F04EC0D601DF
:1016000016964D915D916D917C91199741155105FB
:101610006105710571F1CF019E012F5F3F4F0E945F
:10162000FD11882309F4F4C029813A814B815C8142
:10163000D6011496ED91FC9115978289803149F479
:10164000283FBFEF3B07B0E04B07B0E05B0748F037
:1016500019C0283FEFEF3E07EFEF4E07EFE05E07C0
:1016600088F4D60116962D933D934D935C9319976C
:1016700014C0F60186899789A08DB18D0097A105C8
:10168000B10531F4C6010E947B0A882331F4C0C041
:10169000F60186839783A087B187D60116964D9170
:1016A0005D916D917C91199714968D919C911597F0
:1016B0000E94AA0F7B018C01E90CF11C011D111D78
:1016C000A114B104A9F4B0E06B16B2E07B06A8F552
:1016D000F601228533854485558582899389A489BD
:1016E000B589281739074A075B0710F045E001C0A4
:1016F00041E0C801B7010E941210009709F488C0A8
:1017000040E052E04A195B0983014615570508F489
:101710008A019C012A0D3B1DC901B201A8010E944A
:10172000A200A00EB11EF0E0AF16F2E0BF0611F568
:101730000E940F108823F1F46BC08091C50790912F
:10174000C607A091C707B091C8078E159F05A007CF
:10175000B10711F40E949B0F8091CA079091CB07AB
:10176000B801A70192010E94A504882309F450C082
:1017700000E012E0980140E050E0F6018285938598
:10178000A485B585820F931FA41FB51F82879387F9
:10179000A487B587400E511E601A710AD6011A96A9
:1017A0002D913D914D915C911D976114710409F04B
:1017B00008CF52968D919D910D90BC91A02D8217CE
:1017C0009307A407B50748F4F601228B338B448BAB
:1017D000558B81818068818310C08091BE05909176
:1017E000BF05892B51F02114310439F0D60111962F
:1017F0008C911197806811968C93F601818183FFFB
:1018000005C0C6010E94A407882311F0A10105C0EC
:1018100081E0D6018C934FEF5FEFCA010F900F90DC
:101820000F900F90CF91DF911F910F91FF90EF904C
:10183000DF90CF90BF90AF909F907F906F905F9020
:101840004F903F902F90089582FDA1CEB4CE9F92ED
:10185000AF92BF92CF92DF92EF92FF920F931F93BE
:10186000CF93DF938C01FC0182899389A489B58988
:10187000805E9F4FAF41B04008F05CC0C8010E943D
:101880007B0A882309F456C0D80116964D915D91C4
:101890006D917C91199714968D919C9115970E944A
:1018A000AA0F5B016C0145E00E941210EC01009749
:1018B00009F442C080E092E0FE019C0111922150A7
:1018C0003040E1F79C2EED2EFF24F39411C0B601B9
:1018D000A5014F0D511D611D711D8091CA07909189
:1018E000CB07292D3E2D0E94A504882319F1F394DE
:1018F000D8011496ED91FC9115972481F21638F3D6
:1019000030E040E050E089E0220F331F441F551FB4
:101910008A95D1F752968D919D910D90BC91A02DF5
:10192000820F931FA41FB51FF801828B938BA48B8A
:10193000B58B02C0C0E0D0E0CE01DF91CF911F9106
:101940000F91FF90EF90DF90CF90BF90AF909F905E
:1019500008953F924F925F926F927F928F929F92E3
:10196000AF92BF92CF92DF92EF92FF920F931F93AD
:10197000CF93DF934C01EB01442E352E522E8C81F8
:101980009D81F40195838483CB0140E050E060E0C9
:1019900070E00E94DD0677244FC0CE010E94620AEB
:1019A00097FDABC08A859B85AC85BD8581509E4FD8
:1019B000AF4FBF4F8A879B87AC87BD87A090C50775
:1019C000B090C607C090C707D090C80725ECE22E9C
:1019D00025E0F22E00E010E0602EF70180818823E0
:1019E00011F0853E79F4772041F4F401A686B7869C
:1019F000C08AD18A638277247394F7018081882317
:101A000091F428C0B80195E0660F771F9A95E1F729
:101A10006B537A4F842D932D4BE050E00E9495003C
:101A2000009709F47DC00F5F1F4F80E290E0E80E41
:101A3000F91E0031110581F62A853B854C855D85AF
:101A40008A899B89AC89BD89281739074A075B07B2
:101A500008F4A3CF56FE51C051FE4FC0772051F07D
:101A6000F4016380C40161E00E948607EC010097E5
:101A700061F443C08A81823009F43FC0CE010E94E4
:101A8000270C0097D1F1EC01662480E2FE0111924F
:101A90008A95E9F7DE01242D332DC901FC018BE085
:101AA00001900D928150E1F7E091BE05F091BF05E4
:101AB000309739F0BE01625F7F4FCE0140960995A5
:101AC00008C081E298E2998B888B80E098E09F873C
:101AD0008E87888999899B8B8A8B998F888F8E8531
:101AE0009F859F8B8E8B0E94CA0F882331F0C40183
:101AF000662D452D0E94C10801C080E0DF91CF9185
:101B00001F910F91FF90EF90DF90CF90BF90AF901B
:101B10009F908F907F906F905F904F903F9008952F
:101B200057FEE5CFEACF2F923F924F925F926F928E
:101B30007F928F929F92AF92BF92CF92DF92EF925D
:101B4000FF920F931F93DF93CF93CDB7DEB7C454AB
:101B5000D0400FB6F894DEBF0FBECDBF3C016B0185
:101B6000DE01A05CBF4F11965C934E9323962FAF7E
:101B700023976115710509F483C01E8618A6FC0120
:101B80008281882309F07CC01C861EA2FA01808114
:101B90008F32F1F086015CE0E52EF12CEC0EFD1E9B
:101BA00040E4A42EB12CAC0EBD1E4E010894811C45
:101BB000911C2596FFAEEEAE259736E2232E312CF2
:101BC0002C0E3D1E270124C01196B183A08301C0B5
:101BD000FD01A081B1818C918F32B1F3D6011296B3
:101BE0008C91129782508230A8F28E010A5D1F4FAD
:101BF00014966D917C911597C8010E9495068823D3
:101C000051F63EC0342D252D8701832F922F7C0164
:101C1000F50180819181B401A5010E94E00588232E
:101C200029F42EC03196D501ED93FC93D501ED91A9
:101C3000FC9180818F32B1F38823C9F0C701B801CC
:101C4000A40121E00E94A90C8823D1F00C151D05E8
:101C500019F0C8010E9445092596EEADFFAD259704
:101C6000EE16FF0679F6C101322D292FCDCFC30123
:101C7000B801A40123962FAD23970E94A90C01C09F
:101C800080E0CC5BDF4F0FB6F894DEBF0FBECDBF58
:101C9000CF91DF911F910F91FF90EF90DF90CF9048
:101CA000BF90AF909F908F907F906F905F904F907C
:101CB0003F902F900895FB01242F6091BC057091F7
:101CC000BD05AF010E94930D0895CF93DF93EC0102
:101CD000662331F06E96D093BD05C093BC056E9718
:101CE00088A1882321F0CE014E960E944509CE019D
:101CF0004E962596BE010E949506DF91CF910895DC
:101D00000F931F93CF93DF93EC010E941305882359
:101D1000C9F08E010B5F1F4FC801BE0141E00E9458
:101D20005610882339F4C801BE0140E00E945610C5
:101D3000882341F0CE0161E00E94650E882319F0EE
:101D400081E001C080E0DF91CF911F910F91089554
:101D5000DB010D900020E9F71197A61BB70B049645
:101D6000AD010E94A20A0895DF93CF930F92CDB7E1
:101D7000DEB769830496BE016F5F7F4F41E050E09C
:101D80000E94A20A20E030E0019711F421E030E047
:101D9000C9010F90CF91DF91089504960E94A20A85
:101DA000089551985998509A589A529A5A98089565
:101DB0000895000000005A9A499B02C080E801C0C3
:101DC00080E05A98000000005A9A499980645A9815
:101DD000000000005A9A499980625A980000000059
:101DE0005A9A499980615A98000000005A9A499974
:101DF00088605A98000000005A9A499984605A985D
:101E0000000000005A9A499982605A980000000028
:101E10005A9A499981605A980895CF92DF92EF9229
:101E2000FF920F931F93CF93DF936C017B018A0185
:101E3000C0E0D0E008C0C6010E94D90EF701EC0F47
:101E4000FD1F80832196C017D107A8F380E0DF91A2
:101E5000CF911F910F91FF90EF90DF90CF90089559
:101E600067FF02C0589A01C058985A9A00000000B3
:101E70005A9866FF02C0589A01C058985A9A0000B2
:101E800000005A9865FF02C0589A01C058985A9AA3
:101E9000000000005A9864FF02C0589A01C0589888
:101EA0005A9A000000005A9863FF02C0589A01C075
:101EB00058985A9A000000005A9862FF02C0589A37
:101EC00001C058985A9A000000005A9861FF02C059
:101ED000589A01C058985A9A000000005A9860FF1A
:101EE00002C0589A01C058985A9A000000005A98A7
:101EF0000895CF92DF92EF92FF920F931F93CF93AB
:101F0000DF936C017B018A01C0E0D0E008C0F701DB
:101F1000EC0FFD1FC60160810E94300F2196C01793
:101F2000D107A8F3DF91CF911F910F91FF90EF9010
:101F3000DF90CF9008958FEF9FEFAFEFBFEF8093CB
:101F4000C5079093C607A093C707B093C807109220
:101F5000C90708950F931F938C01CB01BA016250FA
:101F6000704080409040F801248130E040E050E033
:101F70000E94F9159B01AC01F80182859385A48527
:101F8000B585280F391F4A1F5B1FB901CA011F9170
:101F90000F9108958091C90780FF3DC04091C5070A
:101FA0005091C6076091C7077091C8078091CA0712
:101FB0009091CB0725EC35E00E94A504882369F1B8
:101FC0008091C90781FF22C08091C0058230F0F066
:101FD0004091C1055091C2056091C3057091C4053F
:101FE0008091C5079091C607A091C707B091C80717
:101FF000480F591F6A1F7B1F8091CA079091CB071A
:1020000025EC35E00E94A504882339F08091C907AA
:102010008E7F8093C90781E0089580E008950E9433
:10202000CA0F0895DF92EF92FF920F931F937B01E7
:102030008C01D42E8091C5079091C607A091C70747
:10204000B091C8078E159F05A007B107E1F00E9467
:10205000CA0F882311F1D2FC0CC08091CA0790915D
:10206000CB07B801A70125EC35E00E94DF048823E7
:10207000A1F01092C907E092C507F092C60700933D
:10208000C7071093C80783E0D8228091C9078D291C
:102090008093C90725EC35E002C020E030E0C9019B
:1020A0001F910F91FF90EF90DF9008956F927F92B4
:1020B0008F929F92AF92BF92CF92DF92EF92FF9258
:1020C0000F931F93CF93DF93EC01142F7093CB07E3
:1020D0006093CA071A8A82E090E0A0E0B0E08883AB
:1020E0009983AA83BB831092C9078FEF9FEFAFEF4D
:1020F000BFEF8093C5079093C607A093C707B0931F
:10210000C807442321F466247724430136C04530B0
:1021100008F0EFC060E070E080E090E040E00E94F6
:102120001210DC01009709F4E4C0412F50E0415047
:102130005040FA0174E0EE0FFF1F7A95E1F7E80FC7
:10214000F91FE254FE4F808190E08F779070892BC9
:1021500009F0CFC064E0440F551F6A95E1F7A40F62
:10216000B51FAA53BE4F6D907D908D909C906114C9
:1021700071048104910409F4BCC0C401B30140E0BE
:102180000E9412105C01009709F4B3C0FC01838522
:1021900094858050924009F0ACC0F501208922233B
:1021A00009F4A7C0468557854115510509F4A1C01A
:1021B0002093C00585858C83198691E060E070E0EE
:1021C0000AC0990F6F5F7F4F6830710509F491C0A5
:1021D00089858F5F89878C81891799F7F5016689D1
:1021E00077896115710519F080E090E005C0F5016F
:1021F00064A175A186A197A16093C1057093C205E2
:102200008093C3059093C4056A01EE24FF24C60C95
:10221000D71CE81CF91CCE86DF86E88AF98AF5010E
:10222000018912891C8B0B8B30E040E050E00E944A
:10223000F9156C0D7D1D8E1D9F1D6D8B7E8B8F8BFB
:10224000988F35E0000F111F3A95E1F701501E4FAE
:10225000012F11270695980140E050E0260F371F07
:10226000481F591F2A873B874C875D87F501838963
:102270009489009721F07C0100E010E005C0F50191
:10228000E0A0F1A002A113A1C401B301621B730B72
:10229000840B950B6E0D7F1D801F911F098404C058
:1022A00096958795779567950A94D2F76D837E8387
:1022B0008F839887653FFFE07F07F0E08F07F0E0AE
:1022C0009F0718F48CE08A8B14C0655F7F4F8040B5
:1022D000904010F480E10AC0F50184A595A5A6A55B
:1022E000B7A58D8B9E8BAF8BB88F80E28A8B81E0F8
:1022F00001C080E0DF91CF911F910F91FF90EF908F
:10230000DF90CF90BF90AF909F908F907F906F9015
:10231000089542600E94121008958F929F92AF928A
:10232000BF92CF92DF92EF92FF920F931F93CF93C2
:10233000DF93EC016A017B014801590142305105EC
:102340006105710508F44BC08D819E81AF81B88510
:102350000196A11DB11D84179507A607B70708F4BC
:102360003EC08A89803129F4252F362F472F5527E3
:102370000BC08032A1F59A01AB0117E05695479545
:10238000379527951A95D1F78E859F85A889B989A4
:10239000280F391F4A1F5B1FCA01B90141E00E9483
:1023A00089119C010097D9F08A89803149F4F6019E
:1023B000F070EE0FFF1FE20FF31F918280820DC0BD
:1023C000F601EF77F070EE0FFF1FEE0FFF1FE20F29
:1023D000F31F80829182A282B38281E001C080E0FB
:1023E000DF91CF911F910F91FF90EF90DF90CF90F1
:1023F000BF90AF909F908F900895CF92DF92EF9211
:10240000FF920F931F93CF93DF93EC017A018B011F
:102410006901423051056105710508F453C08D8191
:102420009E81AF81B8850196A11DB11D84179507C6
:10243000A607B70708F446C08A89803129F45527D2
:10244000412F302F2F2D0BC08032E1F59A01AB01C7
:1024500067E056954795379527956A95D1F78E850C
:102460009F85A889B989280F391F4A1F5B1FCA0198
:10247000B90140E00E9489119C01009719F18A89F5
:10248000803159F4F701F070EE0FFF1FE20FF31FD8
:1024900080819181A0E0B0E00EC0F701EF77F0708D
:1024A000EE0FFF1FEE0FFF1FE20FF31F80819181E0
:1024B000A281B381BF70F60180839183A283B3832D
:1024C00081E001C080E0DF91CF911F910F91FF90DB
:1024D000EF90DF90CF9008958F929F92AF92BF922E
:1024E000CF92DF92EF92FF920F931F93DF93CF93E0
:1024F00000D000D0CDB7DEB75C016A017B014E0190
:102500000894811C911CC501B701A60194010E9489
:10251000FD118823B1F1C501B701A60100E010E06B
:1025200020E030E00E948D11882359F1F50180816F
:102530009181A281B381C816D906EA06FB0620F470
:10254000C082D182E282F382C980DA80EB80FC8093
:10255000F5018289803151F4F8EFCF16FFEFDF06E5
:10256000F0E0EF06F0E0FF0670F209C088EFC81651
:102570008FEFD8068FEFE8068FE0F80620F281E0B3
:1025800001C080E00F900F900F900F90CF91DF91DE
:102590001F910F91FF90EF90DF90CF90BF90AF9081
:1025A0009F908F9008952F923F924F925F926F92DB
:1025B0007F928F929F92AF92BF92CF92DF92EF92D3
:1025C000FF920F931F93DF93CF93CDB7DEB766973C
:1025D0000FB6F894DEBF0FBECDBF1C0149875A87E6
:1025E0006B877C873E872D87DC0115962D913D9169
:1025F0004D915C9118972F5F3F4F4F4F5F4F2D8349
:102600003E834F835887ED85FE85008111812281AD
:102610003381011511052105310549F048015901A2
:102620000894811C911CA11CB11C10E006C0DC01A7
:102630008D909D90AD90BC9011E075016401442493
:1026400055243201F10185819681A781B085481614
:1026500059066A067B0608F09DC02D813E814F8198
:1026600058852C153D054E055F0550F4F2E08F2E80
:10267000912CA12CB12CE2E0CE2ED12CE12CF12C0E
:10268000C101B701A6019E012F5F3F4F0E94FD11BE
:10269000882309F47FC089819A81AB81BC8100972E
:1026A000A105B10571F08C149D04AE04BF0409F0BE
:1026B00010E0460157010894811C911CA11CB11C1B
:1026C00016C0D701C6010196A11DB11D8B8B9C8B35
:1026D000AD8BBE8B88199909AA09BB0929853A8552
:1026E0004B855C8582179307A407B50759F00894BA
:1026F000411C511C611C711C0894C11CD11CE11CA3
:10270000F11CA0CF112349F08B899C89AD89BE892A
:10271000F10180839183A283B383C101B701A60134
:102720000FEF1FEF2FEF3FE00E948D11882399F4E8
:1027300031C0260137010894410851086108710829
:10274000C101B301A201970186010E948D11882366
:1027500009F1730162018C149D04AE04BF0448F3B7
:10276000AD85BE854D915D916D917C914115510571
:102770006105710539F0C101950184010E948D1137
:10278000882341F0ED85FE8580829182A282B3820A
:1027900081E001C080E066960FB6F894DEBF0FBE00
:1027A000CDBFCF91DF911F910F91FF90EF90DF9000
:1027B000CF90BF90AF909F908F907F906F905F90E1
:1027C0004F903F902F9008951F920F920FB60F9247
:1027D00011242F933F934F935F936F937F938F9326
:1027E0009F93AF93BF932091D0073091D107409131
:1027F000D2075091D3077091D407DA01C90102962C
:10280000A11DB11D672F6A5F6D3730F06D57DA017A
:10281000C9010396A11DB11D6093D4078093D00711
:102820009093D107A093D207B093D3078091CC07A0
:102830009091CD07A091CE07B091CF070196A11D31
:10284000B11D8093CC079093CD07A093CE07B09392
:10285000CF07BF91AF919F918F917F916F915F91C2
:102860004F913F912F910F900FBE0F901F90189591
:102870008FB7F8942091D0073091D1074091D207BB
:102880005091D3078FBFB901CA0108959B01AC01D4
:102890007FB7F8948091CC079091CD07A091CE0797
:1028A000B091CF0766B5A89B05C06F3F19F00196A0
:1028B000A11DB11D7FBFBA2FA92F982F8827860F82
:1028C000911DA11DB11D63E0880F991FAA1FBB1F99
:1028D0006A95D1F7BC012DC0FFB7F8948091CC0761
:1028E0009091CD07A091CE07B091CF07E6B5A89BF8
:1028F00005C0EF3F19F00196A11DB11DFFBFBA2F12
:10290000A92F982F88278E0F911DA11DB11DE3E0DF
:10291000880F991FAA1FBB1FEA95D1F7861B970B3B
:10292000885E9340C8F2215030404040504068518A
:102930007C4F211531054105510571F608957894B4
:1029400084B5826084BD84B5816084BD85B58260B4
:1029500085BD85B5816085BDEEE6F0E08081816052
:102960008083E1E8F0E01082808182608083808152
:1029700081608083E0E8F0E0808181608083E1EB2A
:10298000F0E0808184608083E0EBF0E08081816012
:102990008083EAE7F0E080818460808380818260C8
:1029A00080838081816080838081806880831092B1
:1029B000C1000895CF93DF93482F50E0CA01865598
:1029C0009F4FFC0134914A565F4FFA01849188234E
:1029D00069F190E0880F991FFC01E858FF4FA5911D
:1029E000B491FC01EE57FF4FC591D491662351F489
:1029F0002FB7F8948C91932F909589238C9388818D
:102A000089230BC0623061F42FB7F8948C91932F17
:102A1000909589238C938881832B88832FBF06C050
:102A20009FB7F8948C91832B8C939FBFDF91CF91AC
:102A30000895482F50E0CA0182549F4FFC01249111
:102A4000CA0186559F4FFC0194914A565F4FFA0187
:102A50003491332309F440C0222351F1233071F023
:102A6000243028F42130A1F0223011F514C0263092
:102A7000B1F02730C1F02430D9F404C08091800037
:102A80008F7703C0809180008F7D8093800010C07D
:102A900084B58F7702C084B58F7D84BD09C08091D5
:102AA000B0008F7703C08091B0008F7D8093B0001D
:102AB000E32FF0E0EE0FFF1FEE57FF4FA591B4910B
:102AC0002FB7F894662321F48C919095892302C046
:102AD0008C91892B8C932FBF0895682F70E0CB01C8
:102AE00082549F4FFC012491CB0186559F4FFC01DE
:102AF00044916A567F4FFB019491992319F420E089
:102B000030E03CC0222351F1233071F0243028F40E
:102B10002130A1F0223011F514C02630B1F0273059
:102B2000C1F02430D9F404C0809180008F7703C0B5
:102B3000809180008F7D8093800010C084B58F7756
:102B400002C084B58F7D84BD09C08091B0008F77AD
:102B500003C08091B0008F7D8093B000892F90E0FA
:102B6000880F991F84579F4FFC01A591B4918C91B8
:102B700020E030E0842311F021E030E0C901089525
:102B8000CF93DF930E949F140E941B03C0E0D0E00C
:102B90000E94B5022097E1F30E940000F9CFCF9286
:102BA000DF92EF92FF920F931F93CF93DF937C01FD
:102BB0006B018A01C0E0D0E00FC0D6016D916D01BC
:102BC000D701ED91FC910190F081E02DC7010995AD
:102BD000C80FD91F015010400115110571F7CE0122
:102BE000DF91CF911F910F91FF90EF90DF90CF90E9
:102BF0000895629FD001739FF001829FE00DF11D47
:102C0000649FE00DF11D929FF00D839FF00D749F66
:102C1000F00D659FF00D9927729FB00DE11DF91F12
:102C2000639FB00DE11DF91FBD01CF01112408956F
:102C3000EE0FFF1F0590F491E02D0994F894FFCF5B
:102C400072656330303030302E77617600524946FD
:102C500046005741564500666D74200064617461FA
:102C60000010000000010001002256000022560062
:102C70000001000800000000007E03CF15000000E6
:062C800000B40ECF1500A8
:00000001FF
